:020000040800F2
:1000000028040020C1100008E1100008E3100008D7
:1000100000000000000000000000000000000000E0
:10002000000000000000000000000000E5100008D3
:100030000000000000000000E7100008E9100008C0
:100040004307000800000000D3070008030A000867
:100050002B0A0008570C00080B1000086F1000084E
:10006000000000007B100008F1100008F3100008E9
:10007000F5100008F7100008F91000080000000053
:10008000FB1000080000000000000000FD10000848
:1000900000000000FF100008011100080311000813
:1000A0000000000005110008000000000711000812
:1000B000FEB5050000D1F9E1B64C2878C00715D58A
:1000C0000C2061680140042909D0616808400828B3
:1000D00049D18020400261680140814243D12068BB
:1000E000800303D56868002800D1DFE1022000907A
:1000F00028680221014019D00C206168014006D017
:1001000061680840082873D16068C00370D4206813
:100110000221014003D0E868012800D0C6E1206830
:10012000F82188432969C900014321602878000724
:1001300000D49CE002200090E8690028606A00D1A9
:1001400085E001210143616200F07AFA0600606AED
:100150000099014000D08AE000F072FA801B02286A
:10016000F5D90320FEBD6868012805D120688021EB
:100170004902014321601EE0002808D12068864919
:1001800001402160206885490140216013E0052875
:10019000206809D18021C9020143216020688021A3
:1001A00049020143216006E07B490140216020684B
:1001B0007A49014021608027BF02686800280BD07F
:1001C00000F03EFA0600206838408FD100F038FA7F
:1001D000801B6528F7D3C4E700F032FA06002068D8
:1001E000384083D000F02CFA801B6528F7D3B8E79D
:1001F00002200090E8680028206817D00121014300
:10020000216000F01DFA060020680099014005D128
:1002100000F016FA801B0228F6D9A2E72068F82120
:1002200088432969C900014321607FE70121884390
:10023000206000F005FA060020680099014000D116
:1002400074E700F0FDF9801B0228F5D989E7012148
:100250008843606200F0F4F90600606A009901408A
:1002600005D000F0EDF9801B0228F6D979E70427C4
:100270002868384074D0002069460871B806E169E2
:10028000014009D1E1690143E161E1690840009061
:10029000009801206946087186480068C00512D49C
:1002A00084480068A10D01438248016000F0C8F94C
:1002B000060080480068C00505D400F0C1F9801B25
:1002C0006528F6D34DE7A868012804D1206A0121EA
:1002D000014321621BE0002808D1206A01218843E4
:1002E0002062206A39468843206210E00528206A8F
:1002F00006D138432062206A01210143216206E0D1
:10030000012188432062206A394688432062022006
:100310000090A86800280DD000F092F90600206A2D
:100320000099014014D100F08BF9801BA14988424B
:10033000F5D316E700F084F90600206A0099014021
:1003400006D000F07DF9801B9A498842F5D308E772
:1003500068460079012803D1E06997490140E161CD
:100360002878C00623D5686901283CD1606B074313
:100370006763606B01210143616300F061F906006E
:10038000606B009901400BD100F05AF9801B0228E4
:10039000F6D9E6E600100240FFFFFEFFFFFFFBFF7D
:1003A000606BF8218843A969C90001436163286A29
:1003B00000287DD061680C220A40082A61D080277D
:1003C000BF048D49022820684DD10140216000F012
:1003D00037F906002068384027D000F031F9801B3B
:1003E0000228F7D9BDE60421C9438842606B09D1D0
:1003F00001406163606BF8218843A969C90001432A
:100400006163D4E707436763606B012188436063DE
:1004100000F016F90600606B00990140C7D000F0AB
:100420000FF9801B0228F6D99BE6E06A0F2188436A
:10043000E96A0143E162606870490140A86A0843C3
:10044000696A01436160206879080143216000F016
:10045000F7F80500206838402AD100F0F1F8401B79
:100460000228F7D97DE60140216000F0E9F8050097
:10047000206838401CD000F0E3F8401B0228F7D970
:100480006FE6012812D06068E16A802252020240C1
:100490006B6A9A420AD10907090FEA6A914205D1AB
:1004A000F02189030140A86A814201D00120FEBDEC
:1004B0000020FEBD00700040F8B504005FD0009140
:1004C00001274F480068384088420BD24C480168E9
:1004D0003A469143009A0A43026000683840009906
:1004E00088424CD12168474D022001420CD0490777
:1004F00004D56968E022D2000A436A606968F02284
:100500009143A2680A436A602168394026D0616835
:10051000012903D12868800309D430E0022903D1DE
:100520002868800103D42AE02A68104027D0686830
:10053000032290430143696000F082F80600686876
:100540000C21014060688000814207D000F078F8FB
:10055000801B18498842F2D30320F2BD2848009935
:1005600002683A4091420CD201683A469143009A9F
:100570000A430260006807400098874201D00120CA
:10058000F2BD2078400705D568681F490140E06842
:100590000843686000F012F81C496A6812091207E3
:1005A000120F895CC8401A490860032000F04EF819
:1005B0000020F2BD89130000FFFFFFEF10B51549C1
:1005C00008680C220240082A13D10F2214A3840CBD
:1005D00014401C5D16A3896A0A40995CC00304D5C7
:1005E0000D4800F057F8604310BD0C48444320000C
:1005F00010BD094810BD0000FFFFFFFEFFFFC2FF56
:100600000020024000100240FFF8FFFFB010000879
:10061000240000200410024000127A0000093D006E
:1006200002030405060708090A0B0C0D0E0F101033
:100630000102030405060708090A0B0C0D0E0F1032
:1006400001484068704700BF1800002038B5050019
:100650000E4CFA208000217800F01CF801000C48B4
:10066000006800F017F800F0A8F8002801D0012079
:1006700032BD042D08D2002229000020C04300F022
:1006800098F8A560002032BD012032BD180000207E
:10069000240000200022030A8B420BD203098B4264
:1006A00019D243088B422ED2411A00D20146524140
:1006B00010467047FF2209023FD012068B4205D335
:1006C000121209028B4201D31212090203098B4252
:1006D00019D300E0090AC3098B4201D3CB01C01A28
:1006E000524183098B4201D38B01C01A5241430905
:1006F0008B4201D34B01C01A524103098B4201D3F3
:100700000B01C01A5241C3088B4201D3CB00C01A5F
:10071000524183088B4201D38B00C01A52414308D7
:100720008B4201D34B00C01A5241884200D3401A79
:100730005241CFD201461046704708B500F048F844
:1007400008BDFEE710B4C20018231340FF249C40EC
:10075000E2438901C9B29940030008D419489B08B3
:100760009B00C01803681A40114301600AE0164B51
:100770000007000F083880088000181803681A4026
:100780001143016010BC704710B5401E8021490420
:10079000884201D3012010BD0C4C60600321002071
:1007A000C043FFF7CFFF0020A0600720206000209B
:1007B00010BD80B5FFF7C6FF01BD80B5FFF7E4FFB0
:1007C00002BD000000E400E01CED00E010E000E0ED
:1007D0007047FEE7F4B584B006000D00002100F07C
:1007E000FDF805D22D2028706D1C802000064640A3
:1007F000300000F007F9040000F018F901003000A3
:1008000000F05CF9009000260A2720003900FFF76D
:1008100041FF303101A88155761C20003900FFF7D7
:1008200039FF0400F1D13000461E002804D001A891
:10083000805D28706D1CF6E72E2028706D1C00244A
:100840002600009811E0624900F090F9070000F0DE
:10085000E5F90100303129706D1CC0B200F0E6F8F6
:100860000100380000F02AF9761C31006A46127C3B
:10087000C9B29142E7D32C7005B0F0BD70B5040049
:1008800001269025ED05320022408021280000F04D
:10089000A1FA20004008320002404021280000F068
:1008A00099FA20008008320002402021280000F040
:1008B00091FA2000C008320002401021280000F008
:1008C00089FA20000009320002400821280000F0C7
:1008D00081FA20004009320002400421280000F083
:1008E00079FA20008009064032000221280000F039
:1008F00071FA2200D2090121280000F06BFA70BDC4
:1009000070B5344C01220221200000F063FA324E0F
:10091000B078FFF7B3FF032000F06EFA0022022147
:10092000200000F057FA9025ED058024A400012254
:100930002100280000F04EFA7078FFF79FFF032097
:1009400000F05AFA00222100280000F043FA640067
:1009500001222100280000F03DFA3078FFF78EFFD9
:10096000032000F049FA00222100280000F032FAAA
:1009700070BD1CB502226946FFF72CFF1648010026
:1009800028396A4613782D2B02D1FD23837001E0AC
:10099000CB5C837053782E2B09D183785B1E8370D8
:1009A0009378CB5C4370D278895C01700CE0CB5CAF
:1009B00094782E2C05D15B1E4370D278895C01702F
:1009C00002E0095D01704370FFF79AFF13BD00005C
:1009D0000000204100040048000000200CB4012267
:1009E00012060318DA4207D84B18DA4204D802007C
:1009F0000A43921802D288420CBC7047FCD0814254
:100A0000FAE7FEE700180ED2010E7F390BD44942F7
:100A10001F3105D4C0010122D2071043C8407047DE
:100A20000020401E704700207047FEE79D21020015
:100A30000AD002D4491E9218FCD5C905100A120624
:100A4000524100D3012A4841704700000122D207D9
:100A500003004B402ED4431A01D2C01AC91830B437
:100A60004B180418240E1B0E22D0FF2C20D0E31AA2
:100A7000182B1DDC09021143C40D641E0002104333
:100A800094461925ED1A0A00AA40D940451801D309
:100A90006D08A41CE405D209280A2D062A436546E0
:100AA000AA41604103181B0EFF2B01D3C00DC005E6
:100AB00030BC7047514006E05140CCE70122D207DC
:100AC00003004B40F8D4431A03D2C01AC91850404F
:100AD000514030B44B18090211430418240E1B0E68
:100AE00040D0FF2C3AD025009D410BD31ED8C50D18
:100AF0004002401A0BD3ED050100400AC90591419F
:100B00006841D5E7C50D40024918401AD0D00121EF
:100B10004008491C0018FCD58C4204D36D1A000A09
:100B2000ED054019C4E7E8051040C1E7182DBFDC0A
:100B3000AC1C0D00E140E5414D40012D4941C40D83
:100B400000021043451A01D46D199543641EE40553
:100B5000280A2D069541604130BC7047FF2BA7D174
:100B6000D843A5E72442A3D10020A1E730B4050073
:100B70004D400122D20715404B180418240E2ED0E8
:100B80001B0E32D0FF2C34D0FF2B3AD0E4180002D9
:100B9000090210431143000A090A9446C2B24A43AB
:100BA000000AC3B24B43000A4843110A5B181A43B8
:100BB000D2B2190A091801D44918641E080A7F3CE8
:100BC00023DBFE2C08DAE40509061143634699414C
:100BD0006041284330BC7047FF20C005F9E728007A
:100BE0001B0EFF2BF6D1D043F4E72800FF2CF1D1E8
:100BF000F9E74002F7D1FF2B01D14902F3D1E0051B
:100C0000E7E7D8054902E4D0EDE743020020641C81
:100C1000DFD15B129B1CDCD9D805DAE70122D207B1
:100C20000118090E7F3910D449421F310FD4001822
:100C300005D2C0011043C84000D5D0437047C00161
:100C40001043C84005D4404270470020704700421E
:100C5000F3D510007047FEE7FFB40A00002301003F
:100C600031E0052403E05E4CA142FAD10400AC401F
:100C70003443009804605B480568019EF4432540B6
:100C80005668F60302D52E00019D35430560456880
:100C900025405668B60302D52E00019D35434560B8
:100CA000856825405668F60202D52E00019D354321
:100CB0008560C5682C405568AD0202D52500019CB1
:100CC0002C43C4605B1C10680400DC4000D17FE052
:100CD000012425009D4003950540019501980028B9
:100CE000F0D05068022801D0122811D1D808800015
:100CF0000D18286A1E00B7001C263E400F27B7407B
:100D0000B8431769BC4637006646BE4006432E62AC
:100D10000D68180040006E463070032037780600DA
:100D2000BE40F74302973E462E40556805406F4649
:100D30003F78BD4035430D605568012D05D0022D2B
:100D400003D0112D01D0122D11D18E68029D354096
:100D5000D6686F463F78BE402E438E604D68039E36
:100D6000B5435668360926409E402E434E60CE68F5
:100D7000029D354096686F463F78BE402E43CE6058
:100D80005568ED009ED5184D2E6826432E602D68BF
:100D900025400095009D154D9E08B600AD190095A3
:100DA0002E681D00AF000C253D400F27AF40BE430D
:100DB0009027FF05B94201D1002458E70C4FB942F2
:100DC00000D154E70B4CA14200D04CE702244EE77F
:100DD000FFBC7047002A01D0816170478162704773
:100DE000000C0048000401401810024008000140B7
:100DF000000400480008004838B50500FFF720FC53
:100E000004000020C043854202D0044800782D1819
:100E1000FFF716FC001BA842FAD331BD18000020D2
:100E200080B500F07BF800F008F800F030F83648A4
:100E3000FFF79FFDFFF764FDFCE710B590B030228F
:100E4000002104A800F07AF810220021684600F082
:100E500075F80220049001200790102008900024CB
:100E60000C9404A8FFF724F9002801D000F054F8EE
:100E70000720009001940294039421466846FFF7EE
:100E80001BFB002801D000F047F810B010BDF8B5EA
:100E900086B01422002101A800F050F880208002C2
:100EA0001A490A6802430A600A68104000900098D4
:100EB0008020C0020A6802430A6009680840009066
:100EC0000098134C9027FF05002221003800FFF7FF
:100ED00081FF104E002202213000FFF77BFF0194BA
:100EE0000124029400250395049501A93800FFF719
:100EF000B3FE0220019002940395049501A93000ED
:100F0000FFF7AAFE07B0F0BD000010C014100240A9
:100F1000FF0600000004004872B6FEE780B50648F0
:100F2000016810220A4302600320FFF78FFB00F0E4
:100F30000FF8002002BD00000020024010B50400A0
:100F4000080011000200200000F01AF8200010BD77
:100F500081B0012009490A6802430A600A6810400A
:100F600000900098802040054A6802434A60496822
:100F700008400090009801B0704700BF1810024070
:100F80001206130A1A43130C1A4300BF094205D074
:100F9000830705D00270401C491EF9D1704700003C
:100FA0001300103906D330B41400150010393CC0BA
:100FB000FCD230BC490700D30CC000D504C0890066
:100FC00002D30280801C002900D50270704730B522
:100FD00001684118446862088A188368E40704D5E8
:100FE0004C461B1901E0641C06D191420BD00C78D1
:100FF00064B2491C0D78491C1D705B1C002CF2D496
:10100000641EF7D5F1E70C3030BDFEE710B5074997
:1010100079441831064C7C44163404E0081D0A68F3
:10102000891888470100A142F8D110BD08000000CE
:10103000140000009BFFFFFFD000000036000000FE
:101040000000002000F00DF8002801D0FFF7DEFFBF
:1010500000BF00BF002000BF00BFFFF7E1FE00F0AF
:1010600002F80120704780B500F002F801BDFEE7EC
:101070000746384600F002F8FBE7FEE780B500BF00
:1010800000BF024A11001820ABBEFBE72600020099
:101090000548014603B4684680F3098800BF00BFD5
:1010A00000BF00BFFFF7CEFFA5EDF5FE70470000C3
:1010B0000000000000000000010203040607080908
:1010C0000148804701480047AD1000089110000812
:1010D0000248416802788918416070471800002072
:1010E000FEE7FEE77047704780B5FFF7F1FF01BDEF
:1010F000FEE7FEE7FEE7FEE7FEE7FEE7FEE7FEE7C8
:10110000FEE7FEE7FEE7FEE7F80009039F250D99DD
:1011100049411F0109FA000001F9000004FC000226
:03112000127A0040
:04000005080010914E
:00000001FF
